{
  "contractName": "KanbanContract",
  "abi": [
    {
      "anonymous": false,
      "inputs": [
        {
          "indexed": false,
          "internalType": "address",
          "name": "receipient",
          "type": "address"
        },
        {
          "indexed": false,
          "internalType": "uint256",
          "name": "taskId",
          "type": "uint256"
        }
      ],
      "name": "AddTask",
      "type": "event"
    },
    {
      "anonymous": false,
      "inputs": [
        {
          "indexed": false,
          "internalType": "uint256",
          "name": "taskId",
          "type": "uint256"
        },
        {
          "indexed": false,
          "internalType": "bool",
          "name": "isDeleted",
          "type": "bool"
        }
      ],
      "name": "DeleteTask",
      "type": "event"
    },
    {
      "anonymous": false,
      "inputs": [
        {
          "indexed": false,
          "internalType": "uint256",
          "name": "taskId",
          "type": "uint256"
        },
        {
          "indexed": false,
          "internalType": "string",
          "name": "title",
          "type": "string"
        },
        {
          "indexed": false,
          "internalType": "string",
          "name": "description",
          "type": "string"
        },
        {
          "indexed": false,
          "internalType": "uint256",
          "name": "dueDate",
          "type": "uint256"
        },
        {
          "indexed": false,
          "internalType": "string",
          "name": "priority",
          "type": "string"
        },
        {
          "indexed": false,
          "internalType": "string",
          "name": "state",
          "type": "string"
        }
      ],
      "name": "UpdateTask",
      "type": "event"
    },
    {
      "inputs": [
        {
          "internalType": "string",
          "name": "title",
          "type": "string"
        },
        {
          "internalType": "string",
          "name": "description",
          "type": "string"
        },
        {
          "internalType": "uint256",
          "name": "dueDate",
          "type": "uint256"
        },
        {
          "internalType": "string",
          "name": "priority",
          "type": "string"
        },
        {
          "internalType": "string",
          "name": "taskState",
          "type": "string"
        },
        {
          "internalType": "string",
          "name": "createUser",
          "type": "string"
        },
        {
          "internalType": "bool",
          "name": "isDeleted",
          "type": "bool"
        }
      ],
      "name": "addTask",
      "outputs": [],
      "stateMutability": "nonpayable",
      "type": "function"
    },
    {
      "inputs": [],
      "name": "getTasks",
      "outputs": [
        {
          "components": [
            {
              "internalType": "uint256",
              "name": "id",
              "type": "uint256"
            },
            {
              "internalType": "string",
              "name": "title",
              "type": "string"
            },
            {
              "internalType": "string",
              "name": "description",
              "type": "string"
            },
            {
              "internalType": "uint256",
              "name": "dueDate",
              "type": "uint256"
            },
            {
              "internalType": "string",
              "name": "priority",
              "type": "string"
            },
            {
              "internalType": "string",
              "name": "taskState",
              "type": "string"
            },
            {
              "internalType": "string",
              "name": "createUser",
              "type": "string"
            },
            {
              "internalType": "bool",
              "name": "isDeleted",
              "type": "bool"
            }
          ],
          "internalType": "struct KanbanContract.Task[]",
          "name": "",
          "type": "tuple[]"
        }
      ],
      "stateMutability": "view",
      "type": "function"
    },
    {
      "inputs": [
        {
          "internalType": "uint256",
          "name": "taskId",
          "type": "uint256"
        },
        {
          "internalType": "bool",
          "name": "isDeleted",
          "type": "bool"
        }
      ],
      "name": "deleteTasks",
      "outputs": [],
      "stateMutability": "nonpayable",
      "type": "function"
    },
    {
      "inputs": [
        {
          "internalType": "uint256",
          "name": "taskId",
          "type": "uint256"
        },
        {
          "internalType": "string",
          "name": "taskState",
          "type": "string"
        }
      ],
      "name": "updateTaskState",
      "outputs": [],
      "stateMutability": "nonpayable",
      "type": "function"
    },
    {
      "inputs": [
        {
          "internalType": "uint256",
          "name": "taskId",
          "type": "uint256"
        },
        {
          "internalType": "string",
          "name": "priority",
          "type": "string"
        }
      ],
      "name": "updateTaskPriority",
      "outputs": [],
      "stateMutability": "nonpayable",
      "type": "function"
    },
    {
      "inputs": [
        {
          "internalType": "uint256",
          "name": "taskId",
          "type": "uint256"
        },
        {
          "internalType": "uint256",
          "name": "dueDate",
          "type": "uint256"
        }
      ],
      "name": "updateTaskDueDate",
      "outputs": [],
      "stateMutability": "nonpayable",
      "type": "function"
    },
    {
      "inputs": [
        {
          "internalType": "uint256",
          "name": "taskId",
          "type": "uint256"
        },
        {
          "internalType": "string",
          "name": "title",
          "type": "string"
        },
        {
          "internalType": "string",
          "name": "description",
          "type": "string"
        },
        {
          "internalType": "uint256",
          "name": "dueDate",
          "type": "uint256"
        },
        {
          "internalType": "string",
          "name": "priority",
          "type": "string"
        },
        {
          "internalType": "string",
          "name": "taskState",
          "type": "string"
        }
      ],
      "name": "updateTaskFields",
      "outputs": [],
      "stateMutability": "nonpayable",
      "type": "function"
    }
  ],
  "bytecode": "0x608060405234801561001057600080fd5b50611927806100206000396000f3fe608060405234801561001057600080fd5b506004361061007d5760003560e01c8063670665e01161005b578063670665e0146100d8578063b6649831146100f4578063d6c4297714610110578063d90b3bff1461012c5761007d565b806304a87e3814610082578063314033f4146100a05780634947995a146100bc575b600080fd5b61008a610148565b6040516100979190610f2b565b60405180910390f35b6100ba60048036038101906100b591906110c2565b610691565b005b6100d660048036038101906100d1919061114a565b61072f565b005b6100f260048036038101906100ed9190611278565b6108d8565b005b61010e600480360381019061010991906112b8565b6109b9565b005b61012a600480360381019061012591906110c2565b610b5f565b005b610146600480360381019061014191906113b5565b610bfd565b005b60606000808054905067ffffffffffffffff81111561016a57610169610f97565b5b6040519080825280602002602001820160405280156101a357816020015b610190610c92565b8152602001906001900390816101885790505b5090506000805b6000805490508110156105d7573373ffffffffffffffffffffffffffffffffffffffff166001600083815260200190815260200160002060009054906101000a900473ffffffffffffffffffffffffffffffffffffffff1673ffffffffffffffffffffffffffffffffffffffff1614801561025b57506000151560008281548110610238576102376113f5565b5b906000526020600020906008020160070160009054906101000a900460ff161515145b156105c45760008181548110610274576102736113f5565b5b906000526020600020906008020160405180610100016040529081600082015481526020016001820180546102a890611453565b80601f01602080910402602001604051908101604052809291908181526020018280546102d490611453565b80156103215780601f106102f657610100808354040283529160200191610321565b820191906000526020600020905b81548152906001019060200180831161030457829003601f168201915b5050505050815260200160028201805461033a90611453565b80601f016020809104026020016040519081016040528092919081815260200182805461036690611453565b80156103b35780601f10610388576101008083540402835291602001916103b3565b820191906000526020600020905b81548152906001019060200180831161039657829003601f168201915b50505050508152602001600382015481526020016004820180546103d690611453565b80601f016020809104026020016040519081016040528092919081815260200182805461040290611453565b801561044f5780601f106104245761010080835404028352916020019161044f565b820191906000526020600020905b81548152906001019060200180831161043257829003601f168201915b5050505050815260200160058201805461046890611453565b80601f016020809104026020016040519081016040528092919081815260200182805461049490611453565b80156104e15780601f106104b6576101008083540402835291602001916104e1565b820191906000526020600020905b8154815290600101906020018083116104c457829003601f168201915b505050505081526020016006820180546104fa90611453565b80601f016020809104026020016040519081016040528092919081815260200182805461052690611453565b80156105735780601f1061054857610100808354040283529160200191610573565b820191906000526020600020905b81548152906001019060200180831161055657829003601f168201915b505050505081526020016007820160009054906101000a900460ff1615151515815250508383815181106105aa576105a96113f5565b5b602002602001018190525081806105c0906114b3565b9250505b80806105cf906114b3565b9150506101aa565b5060008167ffffffffffffffff8111156105f4576105f3610f97565b5b60405190808252806020026020018201604052801561062d57816020015b61061a610c92565b8152602001906001900390816106125790505b50905060005b828110156106875783818151811061064e5761064d6113f5565b5b6020026020010151828281518110610669576106686113f5565b5b6020026020010181905250808061067f906114b3565b915050610633565b5080935050505090565b3373ffffffffffffffffffffffffffffffffffffffff166001600084815260200190815260200160002060009054906101000a900473ffffffffffffffffffffffffffffffffffffffff1673ffffffffffffffffffffffffffffffffffffffff160361072b57806000838154811061070c5761070b6113f5565b5b9060005260206000209060080201600501908161072991906116a7565b505b5050565b60008080549050905060006040518061010001604052808381526020018a815260200189815260200188815260200187815260200186815260200185815260200184151581525090806001815401808255809150506001900390600052602060002090600802016000909190919091506000820151816000015560208201518160010190816107be91906116a7565b5060408201518160020190816107d491906116a7565b506060820151816003015560808201518160040190816107f491906116a7565b5060a082015181600501908161080a91906116a7565b5060c082015181600601908161082091906116a7565b5060e08201518160070160006101000a81548160ff0219169083151502179055505050336001600083815260200190815260200160002060006101000a81548173ffffffffffffffffffffffffffffffffffffffff021916908373ffffffffffffffffffffffffffffffffffffffff1602179055507f1f54e1ba1832d428fbd7e7792beaf62b1fc5a382c207ffd614209c1413e94fda33826040516108c69291906117c9565b60405180910390a15050505050505050565b3373ffffffffffffffffffffffffffffffffffffffff166001600084815260200190815260200160002060009054906101000a900473ffffffffffffffffffffffffffffffffffffffff1673ffffffffffffffffffffffffffffffffffffffff16036109b5578060008381548110610953576109526113f5565b5b906000526020600020906008020160070160006101000a81548160ff0219169083151502179055507ff88a35c3d2016c409a46570b994a17b408dbc83c14a03f521512d50b85386d0682826040516109ac929190611801565b60405180910390a15b5050565b3373ffffffffffffffffffffffffffffffffffffffff166001600088815260200190815260200160002060009054906101000a900473ffffffffffffffffffffffffffffffffffffffff1673ffffffffffffffffffffffffffffffffffffffff1603610b57578460008781548110610a3457610a336113f5565b5b90600052602060002090600802016001019081610a5191906116a7565b508360008781548110610a6757610a666113f5565b5b90600052602060002090600802016002019081610a8491906116a7565b508260008781548110610a9a57610a996113f5565b5b9060005260206000209060080201600301819055508160008781548110610ac457610ac36113f5565b5b90600052602060002090600802016004019081610ae191906116a7565b508060008781548110610af757610af66113f5565b5b90600052602060002090600802016005019081610b1491906116a7565b507f48ee6d3c902b31d37da5efe3bd73708315b6a4a681e81e404b75f8dd79379eb0868686868686604051610b4e96959493929190611874565b60405180910390a15b505050505050565b3373ffffffffffffffffffffffffffffffffffffffff166001600084815260200190815260200160002060009054906101000a900473ffffffffffffffffffffffffffffffffffffffff1673ffffffffffffffffffffffffffffffffffffffff1603610bf9578060008381548110610bda57610bd96113f5565b5b90600052602060002090600802016004019081610bf791906116a7565b505b5050565b3373ffffffffffffffffffffffffffffffffffffffff166001600084815260200190815260200160002060009054906101000a900473ffffffffffffffffffffffffffffffffffffffff1673ffffffffffffffffffffffffffffffffffffffff1603610c8e578060008381548110610c7857610c776113f5565b5b9060005260206000209060080201600301819055505b5050565b604051806101000160405280600081526020016060815260200160608152602001600081526020016060815260200160608152602001606081526020016000151581525090565b600081519050919050565b600082825260208201905092915050565b6000819050602082019050919050565b6000819050919050565b610d1881610d05565b82525050565b600081519050919050565b600082825260208201905092915050565b60005b83811015610d58578082015181840152602081019050610d3d565b60008484015250505050565b6000601f19601f8301169050919050565b6000610d8082610d1e565b610d8a8185610d29565b9350610d9a818560208601610d3a565b610da381610d64565b840191505092915050565b60008115159050919050565b610dc381610dae565b82525050565b600061010083016000830151610de26000860182610d0f565b5060208301518482036020860152610dfa8282610d75565b91505060408301518482036040860152610e148282610d75565b9150506060830151610e296060860182610d0f565b5060808301518482036080860152610e418282610d75565b91505060a083015184820360a0860152610e5b8282610d75565b91505060c083015184820360c0860152610e758282610d75565b91505060e0830151610e8a60e0860182610dba565b508091505092915050565b6000610ea18383610dc9565b905092915050565b6000602082019050919050565b6000610ec182610cd9565b610ecb8185610ce4565b935083602082028501610edd85610cf5565b8060005b85811015610f195784840389528151610efa8582610e95565b9450610f0583610ea9565b925060208a01995050600181019050610ee1565b50829750879550505050505092915050565b60006020820190508181036000830152610f458184610eb6565b905092915050565b6000604051905090565b600080fd5b600080fd5b610f6a81610d05565b8114610f7557600080fd5b50565b600081359050610f8781610f61565b92915050565b600080fd5b600080fd5b7f4e487b7100000000000000000000000000000000000000000000000000000000600052604160045260246000fd5b610fcf82610d64565b810181811067ffffffffffffffff82111715610fee57610fed610f97565b5b80604052505050565b6000611001610f4d565b905061100d8282610fc6565b919050565b600067ffffffffffffffff82111561102d5761102c610f97565b5b61103682610d64565b9050602081019050919050565b82818337600083830152505050565b600061106561106084611012565b610ff7565b90508281526020810184848401111561108157611080610f92565b5b61108c848285611043565b509392505050565b600082601f8301126110a9576110a8610f8d565b5b81356110b9848260208601611052565b91505092915050565b600080604083850312156110d9576110d8610f57565b5b60006110e785828601610f78565b925050602083013567ffffffffffffffff81111561110857611107610f5c565b5b61111485828601611094565b9150509250929050565b61112781610dae565b811461113257600080fd5b50565b6000813590506111448161111e565b92915050565b600080600080600080600060e0888a03121561116957611168610f57565b5b600088013567ffffffffffffffff81111561118757611186610f5c565b5b6111938a828b01611094565b975050602088013567ffffffffffffffff8111156111b4576111b3610f5c565b5b6111c08a828b01611094565b96505060406111d18a828b01610f78565b955050606088013567ffffffffffffffff8111156111f2576111f1610f5c565b5b6111fe8a828b01611094565b945050608088013567ffffffffffffffff81111561121f5761121e610f5c565b5b61122b8a828b01611094565b93505060a088013567ffffffffffffffff81111561124c5761124b610f5c565b5b6112588a828b01611094565b92505060c06112698a828b01611135565b91505092959891949750929550565b6000806040838503121561128f5761128e610f57565b5b600061129d85828601610f78565b92505060206112ae85828601611135565b9150509250929050565b60008060008060008060c087890312156112d5576112d4610f57565b5b60006112e389828a01610f78565b965050602087013567ffffffffffffffff81111561130457611303610f5c565b5b61131089828a01611094565b955050604087013567ffffffffffffffff81111561133157611330610f5c565b5b61133d89828a01611094565b945050606061134e89828a01610f78565b935050608087013567ffffffffffffffff81111561136f5761136e610f5c565b5b61137b89828a01611094565b92505060a087013567ffffffffffffffff81111561139c5761139b610f5c565b5b6113a889828a01611094565b9150509295509295509295565b600080604083850312156113cc576113cb610f57565b5b60006113da85828601610f78565b92505060206113eb85828601610f78565b9150509250929050565b7f4e487b7100000000000000000000000000000000000000000000000000000000600052603260045260246000fd5b7f4e487b7100000000000000000000000000000000000000000000000000000000600052602260045260246000fd5b6000600282049050600182168061146b57607f821691505b60208210810361147e5761147d611424565b5b50919050565b7f4e487b7100000000000000000000000000000000000000000000000000000000600052601160045260246000fd5b60006114be82610d05565b91507fffffffffffffffffffffffffffffffffffffffffffffffffffffffffffffffff82036114f0576114ef611484565b5b600182019050919050565b60008190508160005260206000209050919050565b60006020601f8301049050919050565b600082821b905092915050565b60006008830261155d7fffffffffffffffffffffffffffffffffffffffffffffffffffffffffffffffff82611520565b6115678683611520565b95508019841693508086168417925050509392505050565b6000819050919050565b60006115a461159f61159a84610d05565b61157f565b610d05565b9050919050565b6000819050919050565b6115be83611589565b6115d26115ca826115ab565b84845461152d565b825550505050565b600090565b6115e76115da565b6115f28184846115b5565b505050565b5b818110156116165761160b6000826115df565b6001810190506115f8565b5050565b601f82111561165b5761162c816114fb565b61163584611510565b81016020851015611644578190505b61165861165085611510565b8301826115f7565b50505b505050565b600082821c905092915050565b600061167e60001984600802611660565b1980831691505092915050565b6000611697838361166d565b9150826002028217905092915050565b6116b082610d1e565b67ffffffffffffffff8111156116c9576116c8610f97565b5b6116d38254611453565b6116de82828561161a565b600060209050601f83116001811461171157600084156116ff578287015190505b611709858261168b565b865550611771565b601f19841661171f866114fb565b60005b8281101561174757848901518255600182019150602085019450602081019050611722565b868310156117645784890151611760601f89168261166d565b8355505b6001600288020188555050505b505050505050565b600073ffffffffffffffffffffffffffffffffffffffff82169050919050565b60006117a482611779565b9050919050565b6117b481611799565b82525050565b6117c381610d05565b82525050565b60006040820190506117de60008301856117ab565b6117eb60208301846117ba565b9392505050565b6117fb81610dae565b82525050565b600060408201905061181660008301856117ba565b61182360208301846117f2565b9392505050565b600082825260208201905092915050565b600061184682610d1e565b611850818561182a565b9350611860818560208601610d3a565b61186981610d64565b840191505092915050565b600060c08201905061188960008301896117ba565b818103602083015261189b818861183b565b905081810360408301526118af818761183b565b90506118be60608301866117ba565b81810360808301526118d0818561183b565b905081810360a08301526118e4818461183b565b905097965050505050505056fea2646970667358221220329d9ab8e070011557cad5d3bcd0c256863bf8e50533b4322009b99f1a82c8cb64736f6c63430008110033",
  "immutableReferences": {},
  "source": "// SPDX-License-Identifier: MIT\npragma solidity 0.8.17;\n\n// to deploy \n// deployed contract address \n// ABI\n\n\ncontract KanbanContract {\n  event AddTask(address receipient, uint taskId);\n\n  event DeleteTask(uint taskId, bool isDeleted);\n\n  event UpdateTask(uint taskId, string title, string  description, uint  dueDate, string  priority, string state);\n\n// {\n//       \"id\": 1,\n//       \"title\": \"Task title\",\n//       \"description\": \"Task description\",\n//       \"dueDate\": \"2022-08-10\",\n//       \"priority\": \"HIGH\",\n//       \"state\": \"TODO\",\n//       \"createUser\": \"current user\"\n//     }\n\n  struct Task {\n    uint id;\n    string title;\n    string description;\n    uint dueDate; // unix-timestamp\n    string priority;\n    string taskState;\n    string createUser;\n    bool isDeleted;\n  }\n  \n  // to create a new Task\n  // Task(1, \"task 1\", \"task 1 description\", \"1664614481109\", \"HIGH\", \"TODO\", \"jayant\", false);\n\n  // private meaning no one outside of this contract can access this variable.\n  Task[] private tasks;\n\n  // uint256 => key\n  // address => wallet address\n  // {0: 0xxwkc..7a}, it is like a mapping table, tasks will be asisgned to owners address\n  mapping(uint256 => address) taskToOwner;\n\n  \n  // will not return anything\n  function addTask(string memory title, string memory description, uint dueDate, string memory priority, string memory taskState, string memory createUser, bool isDeleted) external {\n    uint taskId = tasks.length;\n    tasks.push(Task(taskId, title, description, dueDate, priority, taskState, createUser, isDeleted));\n\n    taskToOwner[taskId] = msg.sender; // it will get the wallet address of user who is loggedin\n    \n    emit AddTask(msg.sender, taskId);\n  }\n\n\n  function getTasks() external view returns (Task[] memory) {\n    Task[] memory temp = new Task[](tasks.length); // length of array = length of tasks variable\n    uint counter = 0;\n\n    for(uint i=0; i<tasks.length; i++) {\n      if(taskToOwner[i] == msg.sender && tasks[i].isDeleted == false) {\n        temp[counter] = tasks[i];\n        counter++;\n      }\n    }\n    Task[] memory result = new Task[](counter); \n    for(uint i=0; i<counter; i++) {\n      result[i] = temp[i];\n    }\n    return result;\n  }\n\n  function deleteTasks(uint taskId, bool isDeleted) external {\n    if(taskToOwner[taskId] == msg.sender) { // is current user is the owner of the task\n      tasks[taskId].isDeleted = isDeleted;\n      // in blockchain we can't delete anything\n      emit DeleteTask(taskId, isDeleted);\n    }\n  }\n\n  function updateTaskState(uint taskId, string memory taskState) external {\n    if(taskToOwner[taskId] == msg.sender) {\n      tasks[taskId].taskState = taskState;\n    }\n  }\n\n  function updateTaskPriority(uint taskId, string memory priority) external {\n    if(taskToOwner[taskId] == msg.sender) { \n       tasks[taskId].priority = priority;\n    }\n  }\n\n  function updateTaskDueDate(uint taskId, uint dueDate) external {\n    if(taskToOwner[taskId] == msg.sender) {\n      tasks[taskId].dueDate = dueDate;\n    }\n  }\n\n  function updateTaskFields(uint taskId, string memory title, string memory description, uint  dueDate, string memory priority, string memory taskState) external {\n    if(taskToOwner[taskId] == msg.sender) {\n      tasks[taskId].title = title;\n      tasks[taskId].description = description;\n      tasks[taskId].dueDate = dueDate;\n      tasks[taskId].priority = priority;\n      tasks[taskId].taskState = taskState;\n\n      emit UpdateTask(taskId, title, description, dueDate, priority, taskState);\n    }\n  }\n}\n",
  "sourcePath": "/home/runner/web3-kanban-backend/contracts/KanbanContract.sol",
  "compiler": {
    "name": "solc",
    "version": "0.8.17+commit.8df45f5f.Emscripten.clang"
  },
  "schemaVersion": "3.4.10",
  "updatedAt": "2022-10-01T11:35:00.841Z",
  "devdoc": {
    "kind": "dev",
    "methods": {},
    "version": 1
  },
  "userdoc": {
    "kind": "user",
    "methods": {},
    "version": 1
  }
}